:100000000C9462000C948A000C948A000C948A0070
:100010000C948A000C948A000C948A000C948A0038
:100020000C948A000C948A000C948A000C948A0028
:100030000C948A000C948A000C948A000C948A0018
:100040000C94A8040C948A000C9476040C9450042C
:100050000C948A000C948A000C948A000C948A00F8
:100060000C948A000C948A000000000024002700F1
:100070002A0000000000250028002B0000000000DE
:1000800023002600290004040404040404040202DA
:100090000202020203030303030301020408102007
:1000A0004080010204081020010204081020000012
:1000B0000008000201000003040700000000000027
:1000C0000000F20411241FBECFEFD8E0DEBFCDBF89
:1000D00011E0A0E0B1E0EAE9FEE002C005900D9277
:1000E000AE36B107D9F722E0AEE6B1E001C01D920D
:1000F000A433B207E1F710E0C2E6D0E004C02197D4
:10010000FE010E944507C136D107C9F70E943C0590
:100110000C944B070C940000AF92BF92CF92DF92E9
:10012000EF92FF920F931F93CF93DF936C017B01AC
:100130008B01040F151FEB015E01AE18BF08C0173D
:10014000D10759F06991D601ED91FC910190F081B0
:10015000E02DC6010995892B79F7C501DF91CF9173
:100160001F910F91FF90EF90DF90CF90BF90AF90D5
:100170000895FC01538D448D252F30E0842F90E0AD
:10018000821B930B541710F0CF9608950197089592
:10019000FC01918D828D981761F0A28DAE0FBF2F5B
:1001A000B11D5D968C91928D9F5F9F73928F90E0B1
:1001B00008958FEF9FEF0895FC01918D828D981720
:1001C00031F0828DE80FF11D858D90E008958FEF5D
:1001D0009FEF0895FC01918D228D892F90E0805C26
:1001E0009F4F821B91098F73992708958FE791E0A4
:1001F0000E94EA0021E0892B09F420E0822F089573
:1002000080E090E0892B29F00E94F60081110C9487
:1002100000000895FC01A48DA80FB92FB11DA35AA9
:10022000BF4F2C91848D90E001968F739927848F16
:10023000A689B7892C93A089B1898C918370806439
:100240008C93938D848D981306C00288F389E02DDA
:1002500080818F7D80830895EF92FF920F931F938B
:10026000CF93DF93EC0181E0888F9B8D8C8D981369
:100270001AC0E889F989808185FF15C09FB7F89475
:10028000EE89FF896083E889F989808183708064C1
:1002900080839FBF81E090E0DF91CF911F910F910C
:1002A000FF90EF900895F62E0B8D10E00F5F1F4F1B
:1002B0000F731127E02E8C8D8E110CC00FB607FC2A
:1002C000FACFE889F989808185FFF5CFCE010E94B8
:1002D0000A01F1CFEB8DEC0FFD2FF11DE35AFF4F1B
:1002E000F0829FB7F8940B8FEA89FB898081806246
:1002F000CFCFCF93DF93EC01888D8823B9F0AA8903
:10030000BB89E889F9898C9185FD03C0808186FDD0
:100310000DC00FB607FCF7CF8C9185FFF2CF80811F
:1003200085FFEDCFCE010E940A01E9CFDF91CF9189
:100330000895833081F028F4813099F08230A9F05B
:1003400008958730A9F08830C9F08430B1F48091E5
:1003500080008F7D03C0809180008F778093800024
:10036000089584B58F7784BD089584B58F7DFBCFC4
:100370008091B0008F778093B00008958091B00095
:100380008F7DF9CFCF93DF93282F30E0F901E2552D
:10039000FF4F8491F901E656FF4FD491F901EA57D6
:1003A000FF4FC491CC23A1F081110E949901EC2F41
:1003B000F0E0EE0FFF1FE458FF4FA591B491EC91D0
:1003C000ED2381E090E009F480E0DF91CF91089582
:1003D00080E090E0FACF1F93CF93DF93282F30E097
:1003E000F901E255FF4F8491F901E656FF4FD49190
:1003F000F901EA57FF4FC491CC23A9F0162F8111C0
:100400000E949901EC2FF0E0EE0FFF1FEE58FF4F16
:10041000A591B4918FB7F894EC91111108C0D095C3
:10042000DE23DC938FBFDF91CF911F910895DE2BE8
:10043000F8CFCF93DF9390E0FC01E656FF4F249175
:100440008A579F4FFC0184918823D1F090E0880F58
:10045000991FFC01E859FF4FA591B491FC01EE589A
:10046000FF4FC591D49161110EC09FB7F8948C9144
:10047000E22FE0958E238C932881E223E8839FBFAF
:10048000DF91CF9108958FB7F894EC91E22BEC9324
:100490008FBFF6CF3FB7F89480916F0190917001B4
:1004A000A0917101B091720126B5A89B05C02F3FA4
:1004B00019F00196A11DB11D3FBFBA2FA92F982F8A
:1004C0008827BC01CD01620F711D811D911D42E085
:1004D000660F771F881F991F4A95D1F708950895D1
:1004E00090E080E008958F929F92AF92BF920F9319
:1004F0001F93CF93DF93CDB7DEB7A1970FB6F894D4
:10050000DEBF0FBECDBF19A2423008F44AE08E0113
:100510000F5D1F4F842E912CB12CA12CA5019401AD
:100520000E94F006E62FB901CA01EA3044F5E05D09
:10053000D801EE938D01232B242B252B79F790E006
:1005400080E0109769F0FD0101900020E9F73197F4
:10055000AF014A1B5B0BBD018CE192E00E948C0055
:10056000A1960FB6F894DEBF0FBECDBFDF91CF913D
:100570001F910F91BF90AF909F908F900895E95C6D
:10058000D7CFFC0101900020E9F73197AF01481B5C
:10059000590BBC018CE192E00C948C00CF93DF935B
:1005A000EC0160E08E810E94EB0161E08E810E948F
:1005B000EB0160E08E810E94EB018BE891E00197F6
:1005C000F1F7DF91CF910895CF92DF92EF92FF92F2
:1005D0000F931F93CF93DF936C017C0187E0E80EAC
:1005E000F11CD0E0C0E0062F10E0B8010C2E02C0D4
:1005F000759567950A94E2F76170F70181917F0123
:100600000E94EB012196C430D10579F7C601DF9134
:10061000CF911F910F91FF90EF90DF90CF900C94AE
:10062000CE02CF92DF92EF92FF920F931F93CF9360
:10063000DF93EC01F62E642F8C810E94EB018D81FB
:100640008F3F19F060E00E94EB010F2D10E08F85C5
:1006500084FF25C06E0187E0C80ED11CF12CE12C6F
:10066000B8010E2C02C0759567950A94E2F7617087
:10067000F60181916F010E94EB01FFEFEF1AFF0A73
:1006800088E0E816F10461F7CE01DF91CF911F9168
:100690000F91FF90EF90DF90CF900C94CE02B801B5
:1006A00084E0759567958A95E1F7CE010E94E40292
:1006B0006F2DCE01DF91CF911F910F91FF90EF90A1
:1006C000DF90CF900C94E40240E0682F8CE192E040
:1006D0000C94110381E00E9464038BE39FE1019776
:1006E000F1F70895CF93DF93823029F490912B0294
:1006F000986090932B0280932F021092300280E436
:100700008093310280E18093320280E5809333024E
:1007100061E0809120020E941902809121028F3FA6
:1007200019F061E00E94190261E0809122020E94AA
:100730001902CCE1D2E09E012C51324080912B0273
:1007400084FD0BC084E090E021962817390744F41B
:1007500061E08E810E941902EECF88E090E0F4CF34
:100760008BE39DE00197F1F760E0809120020E9409
:10077000EB0160E0809122020E94EB018091210256
:100780008F3F19F060E00E94EB0180912B0284FD05
:1007900034C063E08CE192E00E94E402CBE4D6E452
:1007A000CE010197F1F763E08CE192E00E94E40250
:1007B0002197F1F763E08CE192E00E94E40283E587
:1007C00092E00197F1F762E08CE192E00E94E4028E
:1007D00080912B0280620E94640384E080932C024B
:1007E0008CE00E9464030E946A0382E080932D02E1
:1007F00086E0DF91CF910C94640380620E946403D1
:100800008BE496E40197F1F780912B0280620E94BD
:10081000640383E592E00197F1F780912B028062F7
:100820000E946403D5CFE0912F02E23040F4E15002
:10083000F0E0E45EFD4F848980680C946403E1E09D
:10084000F7CF41E00E94110381E090E00895CF923C
:10085000DF92EF92FF926C01990FEE08FF08F7FE0E
:1008600016C041E06DE28CE192E00E941103662720
:100870007727CB016C197D098E099F094AE00E94F8
:1008800073020196FF90EF90DF90CF9008954AE0B9
:10089000C701B601FF90EF90DF90CF900C947302E8
:1008A0001F920F920FB60F9211242F933F934F93E5
:1008B0005F936F937F938F939F93AF93BF93EF93C8
:1008C000FF938FE791E00E940A01FF91EF91BF91A2
:1008D000AF919F918F917F916F915F914F913F91D8
:1008E0002F910F900FBE0F901F9018951F920F928F
:1008F0000FB60F9211242F938F939F93EF93FF9333
:10090000E0918F01F09190018081E0919501F0914B
:10091000960182FD1BC09081809198018F5F8F733B
:1009200020919901821741F0E0919801F0E0E1589F
:10093000FE4F958F80939801FF91EF919F918F913A
:100940002F910F900FBE0F901F9018958081F4CFBC
:100950001F920F920FB60F9211242F933F938F93F4
:100960009F93AF93BF938091730190917401A09175
:100970007501B091760130916E0123E0230F2D3780
:1009800058F50196A11DB11D20936E01809373014E
:1009900090937401A0937501B093760180916F01DB
:1009A00090917001A0917101B09172010196A11D09
:1009B000B11D80936F0190937001A0937101B0936A
:1009C0007201BF91AF919F918F913F912F910F90A5
:1009D0000FBE0F901F90189526E8230F0296A11DB9
:1009E000B11DD2CFEFE7F1E01382128288EE93E0DF
:1009F000A0E0B0E084839583A683B7838CE091E088
:100A00009183808385EC90E09587848784EC90E0E7
:100A10009787868780EC90E0918B808B81EC90E0CB
:100A2000938B828B82EC90E0958B848B86EC90E0AC
:100A3000978B868B118E128E138E148EECE1F2E062
:100A4000138212828EE191E0918380838CE0848313
:100A50008FEF85838BE0868385E0878384E08087C2
:100A600083E0818782E08287138614861586168646
:100A7000178681E00C947203789484B5826084BDFB
:100A800084B5816084BD85B5826085BD85B5816092
:100A900085BD80916E00816080936E001092810010
:100AA00080918100826080938100809181008160CB
:100AB000809381008091800081608093800080918C
:100AC000B10084608093B1008091B0008160809318
:100AD000B00080917A00846080937A0080917A00DF
:100AE000826080937A0080917A00816080937A009E
:100AF00080917A00806880937A001092C10088E427
:100B00000E946403C0E0D1E069918CE192E00E9410
:100B1000210421E0C830D207B9F782E00E947203B5
:100B200086E291E00E94C10261E08CE192E00E94C5
:100B300021040E94130482E391E00E94C10260E05C
:100B400088E00E94190260E086E00E94190260E0DD
:100B500087E00E94190261E086E00E94EB0161E0FB
:100B600087E00E94EB010E944A024B015C0198EE73
:100B7000C92E93E0D92EE12CF12C0E944A0268196B
:100B800079098A099B09683E734081059105A8F39C
:100B900081E0C81AD108E108F10828EE820E23E0AE
:100BA000921EA11CB11CC114D104E104F10429F767
:100BB00060E082E00E941902E0918F01F0919001C3
:100BC00082E08083E0918B01F0918C011082E091B2
:100BD0008D01F0918E018FEC808310929701E0914E
:100BE0009301F091940186E08083E0919101F0916E
:100BF0009201808180618083E0919101F091920166
:100C0000808188608083E0919101F09192018081E0
:100C100080688083E0919101F091920180818F7DC5
:100C20008083C5E0D0E080E6C82E8AEED82EE12C85
:100C3000F12C00E010E087E00E94C201892B09F04E
:100C40008FC010927E0110927D010E946A038DE395
:100C500091E00E94C102A0907D01B0907E0185E0EC
:100C6000A816B1044CF588E00E94C201892B99F3C3
:100C7000AB2899F42FB7F894809173019091740187
:100C8000A0917501B09176012FBF80937901909367
:100C90007A01A0937B01B0937C0180917D019091BA
:100CA0007E01019690937E0180937D0188E00E94F1
:100CB000C201892BD9F7CFCF2FB7F8948091730158
:100CC00090917401A0917501B09176012FBF209190
:100CD000790130917A01821B930BBE010E94DC06E0
:100CE0009B01770F440B550BC701B6010E941207F9
:100CF00030937801209377010E946A0380E591E0A8
:100D00000E94C1020E9413048091770190917801A2
:100D10000E94270480E391E00E94C10261E08CE11F
:100D200092E00E9421048091770190917801CC9704
:100D3000899770F00E946A0381E691E00E94C102E7
:100D40000E94130480917701909178010E942704FA
:100D500010927E0110927D0110927801109277011D
:100D600086E00E94C201892BD9F41092780110927A
:100D700077010E946A0380E591E00E94C1020E940F
:100D8000130461E08CE192E00E94210480917701DC
:100D9000909178010E94270410927E0110927D01AB
:100DA0000115110509F447CF0E94F600882309F4C4
:100DB00042CF0E9400003FCF97FB072E16F400940D
:100DC00007D077FD09D00E94310707FC05D03EF41B
:100DD000909581959F4F0895709561957F4F0895E7
:100DE000A1E21A2EAA1BBB1BFD010DC0AA1FBB1F2F
:100DF000EE1FFF1FA217B307E407F50720F0A21BA1
:100E0000B30BE40BF50B661F771F881F991F1A940D
:100E100069F760957095809590959B01AC01BD0137
:100E2000CF010895052E97FB1EF400940E94290718
:100E300057FD07D00E94F00607FC03D04EF40C9437
:100E4000290750954095309521953F4F4F4F5F4F63
:100E5000089590958095709561957F4F8F4F9F4F26
:100E60000895AA1BBB1B51E107C0AA1FBB1FA617F1
:100E7000B70710F0A61BB70B881F991F5A95A9F743
:100E800080959095BC01CD010895EE0FFF1F059050
:0A0E9000F491E02D0994F894FFCFCF
:100E9A00000A1F1F1F0E0400000000002C018C0016
:100EAA00B9007901EA00C800DC0000000000210452
:100EBA008C0070026F024865617274204265617429
:100ECA0020004D6F6E69746572696E6700506C65BB
:100EDA0061736520776169742E2E2E2E2E2E2E00B8
:100EEA004865617274204265617420526174653A82
:0E0EFA000041626E6F726D616C2042504D00BF
:00000001FF
